{
  "_format": "hh-sol-artifact-1",
  "contractName": "DaoMixVoting",
  "sourceName": "contracts/DaoMixVoting.sol",
  "abi": [
    {
      "anonymous": false,
      "inputs": [
        {
          "indexed": true,
          "internalType": "uint256",
          "name": "electionId",
          "type": "uint256"
        },
        {
          "indexed": false,
          "internalType": "string",
          "name": "name",
          "type": "string"
        },
        {
          "indexed": false,
          "internalType": "address",
          "name": "admin",
          "type": "address"
        },
        {
          "indexed": false,
          "internalType": "address",
          "name": "tallyAuthority",
          "type": "address"
        }
      ],
      "name": "ElectionCreated",
      "type": "event"
    },
    {
      "anonymous": false,
      "inputs": [
        {
          "indexed": true,
          "internalType": "uint256",
          "name": "electionId",
          "type": "uint256"
        },
        {
          "indexed": false,
          "internalType": "bytes32",
          "name": "inputRoot",
          "type": "bytes32"
        },
        {
          "indexed": false,
          "internalType": "bytes32",
          "name": "outputRoot",
          "type": "bytes32"
        }
      ],
      "name": "MixCommitmentsSet",
      "type": "event"
    },
    {
      "anonymous": false,
      "inputs": [
        {
          "indexed": true,
          "internalType": "uint256",
          "name": "electionId",
          "type": "uint256"
        },
        {
          "indexed": false,
          "internalType": "string",
          "name": "resultUri",
          "type": "string"
        },
        {
          "indexed": false,
          "internalType": "bytes32",
          "name": "resultHash",
          "type": "bytes32"
        }
      ],
      "name": "TallySubmitted",
      "type": "event"
    },
    {
      "anonymous": false,
      "inputs": [
        {
          "indexed": true,
          "internalType": "uint256",
          "name": "electionId",
          "type": "uint256"
        },
        {
          "indexed": false,
          "internalType": "address",
          "name": "voter",
          "type": "address"
        },
        {
          "indexed": false,
          "internalType": "uint256",
          "name": "index",
          "type": "uint256"
        }
      ],
      "name": "VoteCast",
      "type": "event"
    },
    {
      "anonymous": false,
      "inputs": [
        {
          "indexed": true,
          "internalType": "uint256",
          "name": "electionId",
          "type": "uint256"
        },
        {
          "indexed": false,
          "internalType": "address",
          "name": "voter",
          "type": "address"
        }
      ],
      "name": "VoterRegistered",
      "type": "event"
    },
    {
      "inputs": [
        {
          "internalType": "uint256",
          "name": "electionId",
          "type": "uint256"
        },
        {
          "internalType": "bytes",
          "name": "ballotCipher",
          "type": "bytes"
        }
      ],
      "name": "castVote",
      "outputs": [],
      "stateMutability": "nonpayable",
      "type": "function"
    },
    {
      "inputs": [
        {
          "internalType": "string",
          "name": "name",
          "type": "string"
        },
        {
          "internalType": "uint256",
          "name": "registrationDeadline",
          "type": "uint256"
        },
        {
          "internalType": "uint256",
          "name": "votingDeadline",
          "type": "uint256"
        },
        {
          "internalType": "address",
          "name": "tallyAuthority",
          "type": "address"
        }
      ],
      "name": "createElection",
      "outputs": [
        {
          "internalType": "uint256",
          "name": "",
          "type": "uint256"
        }
      ],
      "stateMutability": "nonpayable",
      "type": "function"
    },
    {
      "inputs": [],
      "name": "electionCount",
      "outputs": [
        {
          "internalType": "uint256",
          "name": "",
          "type": "uint256"
        }
      ],
      "stateMutability": "view",
      "type": "function"
    },
    {
      "inputs": [
        {
          "internalType": "uint256",
          "name": "",
          "type": "uint256"
        }
      ],
      "name": "elections",
      "outputs": [
        {
          "internalType": "uint256",
          "name": "id",
          "type": "uint256"
        },
        {
          "internalType": "string",
          "name": "name",
          "type": "string"
        },
        {
          "internalType": "uint256",
          "name": "registrationDeadline",
          "type": "uint256"
        },
        {
          "internalType": "uint256",
          "name": "votingDeadline",
          "type": "uint256"
        },
        {
          "internalType": "address",
          "name": "admin",
          "type": "address"
        },
        {
          "internalType": "address",
          "name": "tallyAuthority",
          "type": "address"
        },
        {
          "internalType": "bytes32",
          "name": "commitmentInputRoot",
          "type": "bytes32"
        },
        {
          "internalType": "bytes32",
          "name": "commitmentOutputRoot",
          "type": "bytes32"
        },
        {
          "internalType": "bool",
          "name": "finalized",
          "type": "bool"
        }
      ],
      "stateMutability": "view",
      "type": "function"
    },
    {
      "inputs": [
        {
          "internalType": "uint256",
          "name": "electionId",
          "type": "uint256"
        }
      ],
      "name": "getBallots",
      "outputs": [
        {
          "internalType": "bytes[]",
          "name": "",
          "type": "bytes[]"
        }
      ],
      "stateMutability": "view",
      "type": "function"
    },
    {
      "inputs": [
        {
          "internalType": "uint256",
          "name": "",
          "type": "uint256"
        },
        {
          "internalType": "address",
          "name": "",
          "type": "address"
        }
      ],
      "name": "isRegisteredVoter",
      "outputs": [
        {
          "internalType": "bool",
          "name": "",
          "type": "bool"
        }
      ],
      "stateMutability": "view",
      "type": "function"
    },
    {
      "inputs": [
        {
          "internalType": "uint256",
          "name": "electionId",
          "type": "uint256"
        },
        {
          "internalType": "address",
          "name": "voter",
          "type": "address"
        }
      ],
      "name": "registerVoter",
      "outputs": [],
      "stateMutability": "nonpayable",
      "type": "function"
    },
    {
      "inputs": [
        {
          "internalType": "uint256",
          "name": "electionId",
          "type": "uint256"
        },
        {
          "internalType": "bytes32",
          "name": "inputRoot",
          "type": "bytes32"
        },
        {
          "internalType": "bytes32",
          "name": "outputRoot",
          "type": "bytes32"
        }
      ],
      "name": "setMixCommitments",
      "outputs": [],
      "stateMutability": "nonpayable",
      "type": "function"
    },
    {
      "inputs": [
        {
          "internalType": "uint256",
          "name": "electionId",
          "type": "uint256"
        },
        {
          "internalType": "string",
          "name": "resultUri",
          "type": "string"
        },
        {
          "internalType": "bytes32",
          "name": "resultHash",
          "type": "bytes32"
        }
      ],
      "name": "submitTally",
      "outputs": [],
      "stateMutability": "nonpayable",
      "type": "function"
    }
  ],
  "bytecode": "0x608060405234801561001057600080fd5b5061283a806100206000396000f3fe608060405234801561001057600080fd5b50600436106100935760003560e01c806394c790bb1161006657806394c790bb14610138578063997d283014610154578063a8da7f2514610172578063ad3290701461018e578063fb7344d0146101be57610093565b80631fcfc7c214610098578063221d8e07146100c85780633e23a608146100e45780635e6fef0114610100575b600080fd5b6100b260048036038101906100ad9190611495565b6101ee565b6040516100bf91906114f0565b60405180910390f35b6100e260048036038101906100dd91906115a6565b61021d565b005b6100fe60048036038101906100f9919061161a565b6104a4565b005b61011a6004803603810190610115919061166d565b61069b565b60405161012f99989796959493929190611757565b60405180910390f35b610152600480360381019061014d9190611495565b6107be565b005b61015c610c53565b60405161016991906117eb565b60405180910390f35b61018c6004803603810190610187919061185c565b610c59565b005b6101a860048036038101906101a391906118bc565b61102f565b6040516101b591906117eb565b60405180910390f35b6101d860048036038101906101d3919061166d565b61130b565b6040516101e59190611a5b565b60405180910390f35b60026020528160005260406000206020528060005260406000206000915091509054906101000a900460ff1681565b836001600082815260200190815260200160002060050160009054906101000a900473ffffffffffffffffffffffffffffffffffffffff1673ffffffffffffffffffffffffffffffffffffffff163373ffffffffffffffffffffffffffffffffffffffff16146102c2576040517f08c379a00000000000000000000000000000000000000000000000000000000081526004016102b990611aef565b60405180910390fd5b60006001600087815260200190815260200160002090506000816000015403610320576040517f08c379a000000000000000000000000000000000000000000000000000000000815260040161031790611b5b565b60405180910390fd5b80600301544211610366576040517f08c379a000000000000000000000000000000000000000000000000000000000815260040161035d90611bed565b60405180910390fd5b8060080160009054906101000a900460ff16156103b8576040517f08c379a00000000000000000000000000000000000000000000000000000000081526004016103af90611c59565b60405180910390fd5b600085859050036103fe576040517f08c379a00000000000000000000000000000000000000000000000000000000081526004016103f590611cc5565b60405180910390fd5b6000801b8303610443576040517f08c379a000000000000000000000000000000000000000000000000000000000815260040161043a90611d31565b60405180910390fd5b60018160080160006101000a81548160ff021916908315150217905550857f32360e4282ad0f0714c22d3a5965a98938b916f747784c32306d9c3be0156e8e86868660405161049493929190611d8d565b60405180910390a2505050505050565b826001600082815260200190815260200160002060040160009054906101000a900473ffffffffffffffffffffffffffffffffffffffff1673ffffffffffffffffffffffffffffffffffffffff163373ffffffffffffffffffffffffffffffffffffffff1614610549576040517f08c379a000000000000000000000000000000000000000000000000000000000815260040161054090611e0b565b60405180910390fd5b600060016000868152602001908152602001600020905060008160000154036105a7576040517f08c379a000000000000000000000000000000000000000000000000000000000815260040161059e90611b5b565b60405180910390fd5b806003015442116105ed576040517f08c379a00000000000000000000000000000000000000000000000000000000081526004016105e490611bed565b60405180910390fd5b6000801b816006015414801561060957506000801b8160070154145b610648576040517f08c379a000000000000000000000000000000000000000000000000000000000815260040161063f90611e9d565b60405180910390fd5b838160060181905550828160070181905550847f35368e626cfa4b54907118c42447a8266c12aa060fb47bd3de78fa2dd69ea460858560405161068c929190611ebd565b60405180910390a25050505050565b60016020528060005260406000206000915090508060000154908060010180546106c490611f15565b80601f01602080910402602001604051908101604052809291908181526020018280546106f090611f15565b801561073d5780601f106107125761010080835404028352916020019161073d565b820191906000526020600020905b81548152906001019060200180831161072057829003601f168201915b5050505050908060020154908060030154908060040160009054906101000a900473ffffffffffffffffffffffffffffffffffffffff16908060050160009054906101000a900473ffffffffffffffffffffffffffffffffffffffff16908060060154908060070154908060080160009054906101000a900460ff16905089565b816001600082815260200190815260200160002060040160009054906101000a900473ffffffffffffffffffffffffffffffffffffffff1673ffffffffffffffffffffffffffffffffffffffff163373ffffffffffffffffffffffffffffffffffffffff1614610863576040517f08c379a000000000000000000000000000000000000000000000000000000000815260040161085a90611e0b565b60405180910390fd5b600060016000858152602001908152602001600020604051806101200160405290816000820154815260200160018201805461089e90611f15565b80601f01602080910402602001604051908101604052809291908181526020018280546108ca90611f15565b80156109175780601f106108ec57610100808354040283529160200191610917565b820191906000526020600020905b8154815290600101906020018083116108fa57829003601f168201915b5050505050815260200160028201548152602001600382015481526020016004820160009054906101000a900473ffffffffffffffffffffffffffffffffffffffff1673ffffffffffffffffffffffffffffffffffffffff1673ffffffffffffffffffffffffffffffffffffffff1681526020016005820160009054906101000a900473ffffffffffffffffffffffffffffffffffffffff1673ffffffffffffffffffffffffffffffffffffffff1673ffffffffffffffffffffffffffffffffffffffff16815260200160068201548152602001600782015481526020016008820160009054906101000a900460ff16151515158152505090506000816000015103610a58576040517f08c379a0000000000000000000000000000000000000000000000000000000008152600401610a4f90611b5b565b60405180910390fd5b8060400151421115610a9f576040517f08c379a0000000000000000000000000000000000000000000000000000000008152600401610a9690611fb8565b60405180910390fd5b600073ffffffffffffffffffffffffffffffffffffffff168373ffffffffffffffffffffffffffffffffffffffff1603610b0e576040517f08c379a0000000000000000000000000000000000000000000000000000000008152600401610b0590612024565b60405180910390fd5b6002600085815260200190815260200160002060008473ffffffffffffffffffffffffffffffffffffffff1673ffffffffffffffffffffffffffffffffffffffff16815260200190815260200160002060009054906101000a900460ff1615610bac576040517f08c379a0000000000000000000000000000000000000000000000000000000008152600401610ba390612090565b60405180910390fd5b60016002600086815260200190815260200160002060008573ffffffffffffffffffffffffffffffffffffffff1673ffffffffffffffffffffffffffffffffffffffff16815260200190815260200160002060006101000a81548160ff021916908315150217905550837ff45b8429c36d478f9a6d081c4811a819b98aa5b608588bed9d406405cf28247384604051610c4591906120b0565b60405180910390a250505050565b60005481565b6000600160008581526020019081526020016000206040518061012001604052908160008201548152602001600182018054610c9490611f15565b80601f0160208091040260200160405190810160405280929190818152602001828054610cc090611f15565b8015610d0d5780601f10610ce257610100808354040283529160200191610d0d565b820191906000526020600020905b815481529060010190602001808311610cf057829003601f168201915b5050505050815260200160028201548152602001600382015481526020016004820160009054906101000a900473ffffffffffffffffffffffffffffffffffffffff1673ffffffffffffffffffffffffffffffffffffffff1673ffffffffffffffffffffffffffffffffffffffff1681526020016005820160009054906101000a900473ffffffffffffffffffffffffffffffffffffffff1673ffffffffffffffffffffffffffffffffffffffff1673ffffffffffffffffffffffffffffffffffffffff16815260200160068201548152602001600782015481526020016008820160009054906101000a900460ff16151515158152505090506000816000015103610e4e576040517f08c379a0000000000000000000000000000000000000000000000000000000008152600401610e4590611b5b565b60405180910390fd5b8060600151421115610e95576040517f08c379a0000000000000000000000000000000000000000000000000000000008152600401610e8c90612117565b60405180910390fd5b6002600085815260200190815260200160002060003373ffffffffffffffffffffffffffffffffffffffff1673ffffffffffffffffffffffffffffffffffffffff16815260200190815260200160002060009054906101000a900460ff16610f32576040517f08c379a0000000000000000000000000000000000000000000000000000000008152600401610f2990612183565b60405180910390fd5b60008383905011610f78576040517f08c379a0000000000000000000000000000000000000000000000000000000008152600401610f6f906121ef565b60405180910390fd5b60036000858152602001908152602001600020838390918060018154018082558091505060019003906000526020600020016000909192909192909192909192509182610fc69291906123f5565b50600060016003600087815260200190815260200160002080549050610fec91906124f4565b9050847f2acce567deca3aabf56327adbb4524bd5318936eaefa69e3a5208ffda0cfec093383604051611020929190612528565b60405180910390a25050505050565b6000828410611073576040517f08c379a000000000000000000000000000000000000000000000000000000000815260040161106a9061259d565b60405180910390fd5b600073ffffffffffffffffffffffffffffffffffffffff168273ffffffffffffffffffffffffffffffffffffffff16036110e2576040517f08c379a00000000000000000000000000000000000000000000000000000000081526004016110d99061262f565b60405180910390fd5b600080600081546110f29061264f565b919050819055905060405180610120016040528082815260200188888080601f016020809104026020016040519081016040528093929190818152602001838380828437600081840152601f19601f8201169050808301925050505050505081526020018681526020018581526020013373ffffffffffffffffffffffffffffffffffffffff1681526020018473ffffffffffffffffffffffffffffffffffffffff1681526020016000801b81526020016000801b815260200160001515815250600160008381526020019081526020016000206000820151816000015560208201518160010190816111e591906126f2565b50604082015181600201556060820151816003015560808201518160040160006101000a81548173ffffffffffffffffffffffffffffffffffffffff021916908373ffffffffffffffffffffffffffffffffffffffff16021790555060a08201518160050160006101000a81548173ffffffffffffffffffffffffffffffffffffffff021916908373ffffffffffffffffffffffffffffffffffffffff16021790555060c0820151816006015560e082015181600701556101008201518160080160006101000a81548160ff021916908315150217905550905050807f63e5e7669ac4c83d4811c130d5dad13b604a087baff50d08f42a48a9f0701a47888833876040516112f694939291906127c4565b60405180910390a28091505095945050505050565b606060036000838152602001908152602001600020805480602002602001604051908101604052809291908181526020016000905b828210156113ec57838290600052602060002001805461135f90611f15565b80601f016020809104026020016040519081016040528092919081815260200182805461138b90611f15565b80156113d85780601f106113ad576101008083540402835291602001916113d8565b820191906000526020600020905b8154815290600101906020018083116113bb57829003601f168201915b505050505081526020019060010190611340565b505050509050919050565b600080fd5b600080fd5b6000819050919050565b61141481611401565b811461141f57600080fd5b50565b6000813590506114318161140b565b92915050565b600073ffffffffffffffffffffffffffffffffffffffff82169050919050565b600061146282611437565b9050919050565b61147281611457565b811461147d57600080fd5b50565b60008135905061148f81611469565b92915050565b600080604083850312156114ac576114ab6113f7565b5b60006114ba85828601611422565b92505060206114cb85828601611480565b9150509250929050565b60008115159050919050565b6114ea816114d5565b82525050565b600060208201905061150560008301846114e1565b92915050565b600080fd5b600080fd5b600080fd5b60008083601f8401126115305761152f61150b565b5b8235905067ffffffffffffffff81111561154d5761154c611510565b5b60208301915083600182028301111561156957611568611515565b5b9250929050565b6000819050919050565b61158381611570565b811461158e57600080fd5b50565b6000813590506115a08161157a565b92915050565b600080600080606085870312156115c0576115bf6113f7565b5b60006115ce87828801611422565b945050602085013567ffffffffffffffff8111156115ef576115ee6113fc565b5b6115fb8782880161151a565b9350935050604061160e87828801611591565b91505092959194509250565b600080600060608486031215611633576116326113f7565b5b600061164186828701611422565b935050602061165286828701611591565b925050604061166386828701611591565b9150509250925092565b600060208284031215611683576116826113f7565b5b600061169184828501611422565b91505092915050565b6116a381611401565b82525050565b600081519050919050565b600082825260208201905092915050565b60005b838110156116e35780820151818401526020810190506116c8565b60008484015250505050565b6000601f19601f8301169050919050565b600061170b826116a9565b61171581856116b4565b93506117258185602086016116c5565b61172e816116ef565b840191505092915050565b61174281611457565b82525050565b61175181611570565b82525050565b60006101208201905061176d600083018c61169a565b818103602083015261177f818b611700565b905061178e604083018a61169a565b61179b606083018961169a565b6117a86080830188611739565b6117b560a0830187611739565b6117c260c0830186611748565b6117cf60e0830185611748565b6117dd6101008301846114e1565b9a9950505050505050505050565b6000602082019050611800600083018461169a565b92915050565b60008083601f84011261181c5761181b61150b565b5b8235905067ffffffffffffffff81111561183957611838611510565b5b60208301915083600182028301111561185557611854611515565b5b9250929050565b600080600060408486031215611875576118746113f7565b5b600061188386828701611422565b935050602084013567ffffffffffffffff8111156118a4576118a36113fc565b5b6118b086828701611806565b92509250509250925092565b6000806000806000608086880312156118d8576118d76113f7565b5b600086013567ffffffffffffffff8111156118f6576118f56113fc565b5b6119028882890161151a565b9550955050602061191588828901611422565b935050604061192688828901611422565b925050606061193788828901611480565b9150509295509295909350565b600081519050919050565b600082825260208201905092915050565b6000819050602082019050919050565b600081519050919050565b600082825260208201905092915050565b600061199782611970565b6119a1818561197b565b93506119b18185602086016116c5565b6119ba816116ef565b840191505092915050565b60006119d1838361198c565b905092915050565b6000602082019050919050565b60006119f182611944565b6119fb818561194f565b935083602082028501611a0d85611960565b8060005b85811015611a495784840389528151611a2a85826119c5565b9450611a35836119d9565b925060208a01995050600181019050611a11565b50829750879550505050505092915050565b60006020820190508181036000830152611a7581846119e6565b905092915050565b7f44616f4d6978566f74696e673a206e6f742074616c6c7920617574686f72697460008201527f7900000000000000000000000000000000000000000000000000000000000000602082015250565b6000611ad96021836116b4565b9150611ae482611a7d565b604082019050919050565b60006020820190508181036000830152611b0881611acc565b9050919050565b7f44616f4d6978566f74696e673a20696e76616c696420656c656374696f6e0000600082015250565b6000611b45601e836116b4565b9150611b5082611b0f565b602082019050919050565b60006020820190508181036000830152611b7481611b38565b9050919050565b7f44616f4d6978566f74696e673a20766f74696e67206e6f742066696e6973686560008201527f6400000000000000000000000000000000000000000000000000000000000000602082015250565b6000611bd76021836116b4565b9150611be282611b7b565b604082019050919050565b60006020820190508181036000830152611c0681611bca565b9050919050565b7f44616f4d6978566f74696e673a20616c72656164792066696e616c697a656400600082015250565b6000611c43601f836116b4565b9150611c4e82611c0d565b602082019050919050565b60006020820190508181036000830152611c7281611c36565b9050919050565b7f44616f4d6978566f74696e673a20656d70747920726573756c74205552490000600082015250565b6000611caf601e836116b4565b9150611cba82611c79565b602082019050919050565b60006020820190508181036000830152611cde81611ca2565b9050919050565b7f44616f4d6978566f74696e673a20656d70747920726573756c74206861736800600082015250565b6000611d1b601f836116b4565b9150611d2682611ce5565b602082019050919050565b60006020820190508181036000830152611d4a81611d0e565b9050919050565b82818337600083830152505050565b6000611d6c83856116b4565b9350611d79838584611d51565b611d82836116ef565b840190509392505050565b60006040820190508181036000830152611da8818587611d60565b9050611db76020830184611748565b949350505050565b7f44616f4d6978566f74696e673a206e6f742061646d696e000000000000000000600082015250565b6000611df56017836116b4565b9150611e0082611dbf565b602082019050919050565b60006020820190508181036000830152611e2481611de8565b9050919050565b7f44616f4d6978566f74696e673a20636f6d6d69746d656e747320616c7265616460008201527f7920736574000000000000000000000000000000000000000000000000000000602082015250565b6000611e876025836116b4565b9150611e9282611e2b565b604082019050919050565b60006020820190508181036000830152611eb681611e7a565b9050919050565b6000604082019050611ed26000830185611748565b611edf6020830184611748565b9392505050565b7f4e487b7100000000000000000000000000000000000000000000000000000000600052602260045260246000fd5b60006002820490506001821680611f2d57607f821691505b602082108103611f4057611f3f611ee6565b5b50919050565b7f44616f4d6978566f74696e673a20726567697374726174696f6e20636c6f736560008201527f6400000000000000000000000000000000000000000000000000000000000000602082015250565b6000611fa26021836116b4565b9150611fad82611f46565b604082019050919050565b60006020820190508181036000830152611fd181611f95565b9050919050565b7f44616f4d6978566f74696e673a20696e76616c696420766f7465720000000000600082015250565b600061200e601b836116b4565b915061201982611fd8565b602082019050919050565b6000602082019050818103600083015261203d81612001565b9050919050565b7f44616f4d6978566f74696e673a20616c72656164792072656769737465726564600082015250565b600061207a6020836116b4565b915061208582612044565b602082019050919050565b600060208201905081810360008301526120a98161206d565b9050919050565b60006020820190506120c56000830184611739565b92915050565b7f44616f4d6978566f74696e673a20766f74696e6720636c6f7365640000000000600082015250565b6000612101601b836116b4565b915061210c826120cb565b602082019050919050565b60006020820190508181036000830152612130816120f4565b9050919050565b7f44616f4d6978566f74696e673a206e6f74207265676973746572656400000000600082015250565b600061216d601c836116b4565b915061217882612137565b602082019050919050565b6000602082019050818103600083015261219c81612160565b9050919050565b7f44616f4d6978566f74696e673a20656d7074792062616c6c6f74000000000000600082015250565b60006121d9601a836116b4565b91506121e4826121a3565b602082019050919050565b60006020820190508181036000830152612208816121cc565b9050919050565b600082905092915050565b7f4e487b7100000000000000000000000000000000000000000000000000000000600052604160045260246000fd5b60008190508160005260206000209050919050565b60006020601f8301049050919050565b600082821b905092915050565b6000600883026122ab7fffffffffffffffffffffffffffffffffffffffffffffffffffffffffffffffff8261226e565b6122b5868361226e565b95508019841693508086168417925050509392505050565b6000819050919050565b60006122f26122ed6122e884611401565b6122cd565b611401565b9050919050565b6000819050919050565b61230c836122d7565b612320612318826122f9565b84845461227b565b825550505050565b600090565b612335612328565b612340818484612303565b505050565b5b818110156123645761235960008261232d565b600181019050612346565b5050565b601f8211156123a95761237a81612249565b6123838461225e565b81016020851015612392578190505b6123a661239e8561225e565b830182612345565b50505b505050565b600082821c905092915050565b60006123cc600019846008026123ae565b1980831691505092915050565b60006123e583836123bb565b9150826002028217905092915050565b6123ff838361220f565b67ffffffffffffffff8111156124185761241761221a565b5b6124228254611f15565b61242d828285612368565b6000601f83116001811461245c576000841561244a578287013590505b61245485826123d9565b8655506124bc565b601f19841661246a86612249565b60005b828110156124925784890135825560018201915060208501945060208101905061246d565b868310156124af57848901356124ab601f8916826123bb565b8355505b6001600288020188555050505b50505050505050565b7f4e487b7100000000000000000000000000000000000000000000000000000000600052601160045260246000fd5b60006124ff82611401565b915061250a83611401565b9250828203905081811115612522576125216124c5565b5b92915050565b600060408201905061253d6000830185611739565b61254a602083018461169a565b9392505050565b7f44616f4d6978566f74696e673a2062616420646561646c696e65730000000000600082015250565b6000612587601b836116b4565b915061259282612551565b602082019050919050565b600060208201905081810360008301526125b68161257a565b9050919050565b7f44616f4d6978566f74696e673a20696e76616c69642074616c6c79206175746860008201527f6f72697479000000000000000000000000000000000000000000000000000000602082015250565b60006126196025836116b4565b9150612624826125bd565b604082019050919050565b600060208201905081810360008301526126488161260c565b9050919050565b600061265a82611401565b91507fffffffffffffffffffffffffffffffffffffffffffffffffffffffffffffffff820361268c5761268b6124c5565b5b600182019050919050565b60008190508160005260206000209050919050565b601f8211156126ed576126be81612697565b6126c78461225e565b810160208510156126d6578190505b6126ea6126e28561225e565b830182612345565b50505b505050565b6126fb826116a9565b67ffffffffffffffff8111156127145761271361221a565b5b61271e8254611f15565b6127298282856126ac565b600060209050601f83116001811461275c576000841561274a578287015190505b61275485826123d9565b8655506127bc565b601f19841661276a86612697565b60005b828110156127925784890151825560018201915060208501945060208101905061276d565b868310156127af57848901516127ab601f8916826123bb565b8355505b6001600288020188555050505b505050505050565b600060608201905081810360008301526127df818688611d60565b90506127ee6020830185611739565b6127fb6040830184611739565b9594505050505056fea2646970667358221220e95cf0c54db8fcac54132619c6122157ebd5604a41f26157477e484fcf160b7364736f6c63430008180033",
  "linkReferences": {},
  "deployedLinkReferences": {}
}